:1000000029C0000042C0000040C000003EC0000007
:100010003CC000003AC0000038C0000036C00000FC
:1000200034C0000032C0000030C000002EC000000C
:10003000CDC200002AC0000028C0000026C0000079
:1000400024C0000022C0000020C000001EC000002C
:100050001CC0000011241FBECFE5D8E0DEBFCDBF1D
:1000600010E0A0E6B0E0E0ECF8E002C005900D92F0
:10007000A839B107D9F720E0A8E9B0E001C01D9286
:10008000A23BB207E1F786D019C4BACF8F929F92F4
:10009000AF92BF92EF92FF920F931F93CF93DF9394
:1000A00080EA90E0EAD264E670E080EA90E0DED395
:1000B000892B09F064C081E0B1D061E081E0B3D167
:1000C00089E690E0A2D1C9EAD0E001EB10E07E0120
:1000D0000F2EFAE08F2E912CA12CB12CF02D72D383
:1000E000A5019401E9D2605DF70161937F010E17CC
:1000F0001F07A9F70F2EF9EAEF2EF0E0FF2EF02DE3
:10010000F70181917F0121D10E151F05C9F790E3F9
:100110008881893311F4988302C08F5F8883219688
:100120000C171D07A9F71092B100E0EAF0E088EA89
:1001300090E01192E817F907E1F78BE990E09DD282
:1001400080EA90E09AD269EA70E080EA90E08ED38B
:10015000892B59F481E08093980060D061E081E0C0
:1001600062D189E690E051D10AC01092980081E0F6
:1001700055D061E081E057D18FE690E046D1DF9124
:10018000CF911F910F91FF90EF90BF90AF909F90F4
:100190008F90089571D135D0A1D02FEF84E39CE0EA
:1001A000215080409040E1F700C0000080E895E2D7
:1001B00036D25BD25CD280EA90E05FD269E770E031
:1001C00080EA90E053D3892BB1F780919800811198
:1001D0000AC081E023D061E081E025D182E890E08F
:1001E00014D154DFE8CF813031F718D061E081E0DD
:1001F0001AD18FE890E009D141E060E082E045D17A
:10020000DACF67E083E0AED166E083E0ABD165E0B2
:1002100083E0A8D163E083E0A5C10895CF93C82F00
:1002200040E064E083E031D1C4FB442740F964E05E
:1002300082E02BD1C5FB442740F965E082E025D15F
:10024000C6FB442740F966E082E01FD14C2F441FD3
:100250004427441F67E082E018D141E066E083E074
:1002600014D183EF91E00197F1F700C0000040E066
:1002700066E083E00AD183EF91E00197F1F700C0D7
:1002800000004C2F417064E082E0FFD0C1FB4427A6
:1002900040F965E082E0F9D0C2FB442740F966E00E
:1002A00082E0F3D0C3FB442740F967E082E0EDD061
:1002B00041E066E083E0E9D083EF91E00197F1F758
:1002C00000C0000040E066E083E0DFD083EF91E013
:1002D0000197F1F700C00000CF9108958FE097E2F9
:1002E0000197F1F700C0000083E398DF89EF90E009
:1002F0000197F1F700C0000082E390DF89EF90E002
:100300000197F1F700C0000088E288DF89EF90E0F4
:100310000197F1F700C000008CE080DF89EF90E0EA
:100320000197F1F700C0000081E078DF89EF90E0ED
:100330000197F1F700C0000082E070DF89EF90E0E4
:100340000197F1F700C000000895CF93C82F41E056
:1003500064E083E09AD0C4FB442740F964E082E083
:1003600094D0C5FB442740F965E082E08ED0C6FBFF
:10037000442740F966E082E088D04C2F441F442790
:10038000441F67E082E081D041E066E083E07DD0F9
:1003900083EF91E00197F1F700C0000040E066E0D4
:1003A00083E073D083EF91E00197F1F700C0000084
:1003B0004C2F417064E082E068D0C1FB442740F9D3
:1003C00065E082E062D0C2FB442740F966E082E04B
:1003D0005CD0C3FB442740F967E082E056D041E09F
:1003E00066E083E052D083EF91E00197F1F700C01F
:1003F000000040E066E083E048D083EF91E00197A1
:10040000F1F700C00000CF910895CF93DF93EC0186
:100410008881882329F0219698DF89918111FCCF6A
:10042000DF91CF9108959FEF980F9430C0F49FEF24
:10043000960F9431B0F4813019F48FE7860F14C011
:10044000823019F48FEB860F0FC0833019F483E9E3
:10045000860F0AC0843039F483ED860F05C080E82A
:1004600003C080E801C080E8D9DE89EF90E0019701
:10047000F1F700C0000008958FE08ABB8FEB87BBC7
:100480008FEF84BB8EEF81BB0895813001F130F096
:100490008230B1F1833009F44CC00895413059F4F1
:1004A0002BB381E090E002C0880F991F6A95E2F7B4
:1004B000822B8BBB08952BB381E090E002C0880FA4
:1004C000991F6A95E2F7809582238BBB089541308E
:1004D00059F428B381E090E002C0880F991F6A9513
:1004E000E2F7822B88BB089528B381E090E002C038
:1004F000880F991F6A95E2F78095822388BB08953B
:10050000413059F425B381E090E002C0880F991F73
:100510006A95E2F7822B85BB089525B381E090E0D0
:1005200002C0880F991F6A95E2F78095822385BBE8
:100530000895413059F422B381E090E002C0880F61
:10054000991F6A95E2F7822B82BB089522B381E05E
:1005500090E002C0880F991F6A95E2F78095822388
:1005600082BB0895813089F028F08230C9F0833051
:1005700011F1089529B381E090E002C0880F991F1E
:100580006A95E2F7822B89BB089526B381E090E05B
:1005900002C0880F991F6A95E2F7822B86BB0895E7
:1005A00023B381E090E002C0880F991F6A95E2F7BB
:1005B000822B83BB089520B381E090E002C0880FB6
:1005C000991F6A95E2F7822B80BB08951F920F92C4
:1005D0000FB60F9211242F933F934F935F936F9316
:1005E0007F938F939F93AF93BF93EF93FF93E0918C
:1005F0009900F0919A00309709F00995FF91EF91D9
:10060000BF91AF919F918F917F916F915F914F912A
:100610003F912F910F900FBE0F901F90189580B5AE
:10062000806880BD83E389B980B58F7780BD80B550
:10063000826080BD80B5846080BD529880B5806442
:1006400080BD539B03C080B58E7F80BD549B03C08B
:1006500080B58E7F80BD80B58F7E80BD80B58F7D5B
:1006600080BD80B5877F80BD0895549A0895539AC0
:1006700008955F9BFECF8CB10895EF92FF920F9388
:100680001F93CF937C01F5DFF7018083833259F00C
:10069000C0E0CF5F87010C0F111DEBDFF8018083F5
:1006A0008332B9F701C08701F8011082CF911F9101
:1006B0000F91FF90EF900895052E97FB16F400948C
:1006C0000FD057FD05D014D007FC02D046F408C067
:1006D00050954095309521953F4F4F4F5F4F08956E
:1006E00090958095709561957F4F8F4F9F4F08959E
:1006F000A1E21A2EAA1BBB1BFD010DC0AA1FBB1F26
:10070000EE1FFF1FA217B307E407F50720F0A21B97
:10071000B30BE40BF50B661F771F881F991F1A9404
:1007200069F760957095809590959B01AC01BD012E
:10073000CF0108958F929F92AF92BF92CF92DF9296
:10074000EF92FF92CF93DF93EC01688179818A81E8
:100750009B81611571058105910521F464E279EDB4
:100760008BE597E02DE133EF41E050E0A5DF490153
:100770005A019B01AC01A7EAB1E481D06B017C0175
:10078000ACEEB4EFA501940186D0DC01CB018C0D59
:100790009D1DAE1DBF1DB7FF03C00197A109B04845
:1007A00088839983AA83BB83BC01CD019F77DF91A6
:1007B000CF91FF90EF90DF90CF90BF90AF909F9040
:1007C0008F9008958F929F92AF92BF92CF92DF92B7
:1007D000EF92FF92609160007091610080916200E1
:1007E00090916300611571058105910521F464E222
:1007F00079ED8BE597E02DE133EF41E050E05CDFF0
:1008000049015A019B01AC01A7EAB1E438D06B0160
:100810007C01ACEEB4EFA50194013DD0DC01CB012D
:100820008C0D9D1DAE1DBF1DB7FF03C00197A10913
:10083000B0488093600090936100A0936200B093F1
:100840006300BC01CD019F77FF90EF90DF90CF90C8
:10085000BF90AF909F908F900895609360007093C9
:10086000610080936200909363000895FB01DC01B6
:100870008D91019080190110D9F3990B08950FD033
:10088000A59F900DB49F900DA49F800D911D1124E4
:100890000895B7FFF4CFF3DF821B930B0895A29F57
:1008A000B001B39FC001A39F700D811D1124911D44
:1008B000B29F700D811D1124911D0895F894FFCFF2
:1008C0000100000032373031003637303120003738
:1008D000462032372033352000333130314141302A
:1008E00030004E5243203746203331203335003715
:0808F00031303141413030008C
:00000001FF
